{
  "_format": "hh-sol-artifact-1",
  "contractName": "YandaGovernor",
  "sourceName": "contracts/YandaGovernor.sol",
  "abi": [
    {
      "inputs": [
        {
          "internalType": "contract IVotes",
          "name": "_token",
          "type": "address"
        },
        {
          "internalType": "uint256",
          "name": "_votingDelay",
          "type": "uint256"
        },
        {
          "internalType": "uint256",
          "name": "_votingPeriod",
          "type": "uint256"
        },
        {
          "internalType": "uint256",
          "name": "_proposalThreshold",
          "type": "uint256"
        },
        {
          "internalType": "uint256[]",
          "name": "_quorums",
          "type": "uint256[]"
        }
      ],
      "stateMutability": "nonpayable",
      "type": "constructor"
    },
    {
      "anonymous": false,
      "inputs": [
        {
          "indexed": false,
          "internalType": "uint256",
          "name": "proposalId",
          "type": "uint256"
        }
      ],
      "name": "ProposalCanceled",
      "type": "event"
    },
    {
      "anonymous": false,
      "inputs": [
        {
          "indexed": false,
          "internalType": "uint256",
          "name": "proposalId",
          "type": "uint256"
        },
        {
          "indexed": false,
          "internalType": "address",
          "name": "proposer",
          "type": "address"
        },
        {
          "indexed": false,
          "internalType": "address[]",
          "name": "targets",
          "type": "address[]"
        },
        {
          "indexed": false,
          "internalType": "uint256[]",
          "name": "values",
          "type": "uint256[]"
        },
        {
          "indexed": false,
          "internalType": "string[]",
          "name": "signatures",
          "type": "string[]"
        },
        {
          "indexed": false,
          "internalType": "bytes[]",
          "name": "calldatas",
          "type": "bytes[]"
        },
        {
          "indexed": false,
          "internalType": "uint256",
          "name": "startBlock",
          "type": "uint256"
        },
        {
          "indexed": false,
          "internalType": "uint256",
          "name": "endBlock",
          "type": "uint256"
        },
        {
          "indexed": false,
          "internalType": "string",
          "name": "description",
          "type": "string"
        }
      ],
      "name": "ProposalCreated",
      "type": "event"
    },
    {
      "anonymous": false,
      "inputs": [
        {
          "indexed": false,
          "internalType": "uint256",
          "name": "proposalId",
          "type": "uint256"
        }
      ],
      "name": "ProposalExecuted",
      "type": "event"
    },
    {
      "anonymous": false,
      "inputs": [
        {
          "indexed": false,
          "internalType": "uint256",
          "name": "oldProposalThreshold",
          "type": "uint256"
        },
        {
          "indexed": false,
          "internalType": "uint256",
          "name": "newProposalThreshold",
          "type": "uint256"
        }
      ],
      "name": "ProposalThresholdSet",
      "type": "event"
    },
    {
      "anonymous": false,
      "inputs": [
        {
          "indexed": false,
          "internalType": "uint256[]",
          "name": "oldQuorumNumerator",
          "type": "uint256[]"
        },
        {
          "indexed": false,
          "internalType": "uint256[]",
          "name": "newQuorumNumerator",
          "type": "uint256[]"
        }
      ],
      "name": "QuorumNumeratorUpdated",
      "type": "event"
    },
    {
      "anonymous": false,
      "inputs": [
        {
          "indexed": true,
          "internalType": "address",
          "name": "voter",
          "type": "address"
        },
        {
          "indexed": false,
          "internalType": "uint256",
          "name": "proposalId",
          "type": "uint256"
        },
        {
          "indexed": false,
          "internalType": "uint8",
          "name": "support",
          "type": "uint8"
        },
        {
          "indexed": false,
          "internalType": "uint256",
          "name": "weight",
          "type": "uint256"
        },
        {
          "indexed": false,
          "internalType": "string",
          "name": "reason",
          "type": "string"
        }
      ],
      "name": "VoteCast",
      "type": "event"
    },
    {
      "anonymous": false,
      "inputs": [
        {
          "indexed": false,
          "internalType": "uint256",
          "name": "oldVotingDelay",
          "type": "uint256"
        },
        {
          "indexed": false,
          "internalType": "uint256",
          "name": "newVotingDelay",
          "type": "uint256"
        }
      ],
      "name": "VotingDelaySet",
      "type": "event"
    },
    {
      "anonymous": false,
      "inputs": [
        {
          "indexed": false,
          "internalType": "uint256",
          "name": "oldVotingPeriod",
          "type": "uint256"
        },
        {
          "indexed": false,
          "internalType": "uint256",
          "name": "newVotingPeriod",
          "type": "uint256"
        }
      ],
      "name": "VotingPeriodSet",
      "type": "event"
    },
    {
      "inputs": [],
      "name": "BALLOT_TYPEHASH",
      "outputs": [
        {
          "internalType": "bytes32",
          "name": "",
          "type": "bytes32"
        }
      ],
      "stateMutability": "view",
      "type": "function"
    },
    {
      "inputs": [],
      "name": "COUNTING_MODE",
      "outputs": [
        {
          "internalType": "string",
          "name": "",
          "type": "string"
        }
      ],
      "stateMutability": "pure",
      "type": "function"
    },
    {
      "inputs": [
        {
          "internalType": "uint256",
          "name": "proposalId",
          "type": "uint256"
        },
        {
          "internalType": "uint8",
          "name": "support",
          "type": "uint8"
        }
      ],
      "name": "castVote",
      "outputs": [
        {
          "internalType": "uint256",
          "name": "",
          "type": "uint256"
        }
      ],
      "stateMutability": "nonpayable",
      "type": "function"
    },
    {
      "inputs": [
        {
          "internalType": "uint256",
          "name": "proposalId",
          "type": "uint256"
        },
        {
          "internalType": "uint8",
          "name": "support",
          "type": "uint8"
        },
        {
          "internalType": "uint8",
          "name": "v",
          "type": "uint8"
        },
        {
          "internalType": "bytes32",
          "name": "r",
          "type": "bytes32"
        },
        {
          "internalType": "bytes32",
          "name": "s",
          "type": "bytes32"
        }
      ],
      "name": "castVoteBySig",
      "outputs": [
        {
          "internalType": "uint256",
          "name": "",
          "type": "uint256"
        }
      ],
      "stateMutability": "nonpayable",
      "type": "function"
    },
    {
      "inputs": [
        {
          "internalType": "uint256",
          "name": "proposalId",
          "type": "uint256"
        },
        {
          "internalType": "uint8",
          "name": "support",
          "type": "uint8"
        },
        {
          "internalType": "string",
          "name": "reason",
          "type": "string"
        }
      ],
      "name": "castVoteWithReason",
      "outputs": [
        {
          "internalType": "uint256",
          "name": "",
          "type": "uint256"
        }
      ],
      "stateMutability": "nonpayable",
      "type": "function"
    },
    {
      "inputs": [
        {
          "internalType": "address[]",
          "name": "targets",
          "type": "address[]"
        },
        {
          "internalType": "uint256[]",
          "name": "values",
          "type": "uint256[]"
        },
        {
          "internalType": "bytes[]",
          "name": "calldatas",
          "type": "bytes[]"
        },
        {
          "internalType": "bytes32",
          "name": "descriptionHash",
          "type": "bytes32"
        }
      ],
      "name": "execute",
      "outputs": [
        {
          "internalType": "uint256",
          "name": "",
          "type": "uint256"
        }
      ],
      "stateMutability": "payable",
      "type": "function"
    },
    {
      "inputs": [
        {
          "internalType": "bytes",
          "name": "funcHash",
          "type": "bytes"
        }
      ],
      "name": "functionRank",
      "outputs": [
        {
          "internalType": "uint8",
          "name": "",
          "type": "uint8"
        }
      ],
      "stateMutability": "view",
      "type": "function"
    },
    {
      "inputs": [
        {
          "internalType": "address",
          "name": "account",
          "type": "address"
        },
        {
          "internalType": "uint256",
          "name": "blockNumber",
          "type": "uint256"
        }
      ],
      "name": "getVotes",
      "outputs": [
        {
          "internalType": "uint256",
          "name": "",
          "type": "uint256"
        }
      ],
      "stateMutability": "view",
      "type": "function"
    },
    {
      "inputs": [
        {
          "internalType": "uint256",
          "name": "proposalId",
          "type": "uint256"
        },
        {
          "internalType": "address",
          "name": "account",
          "type": "address"
        }
      ],
      "name": "hasVoted",
      "outputs": [
        {
          "internalType": "bool",
          "name": "",
          "type": "bool"
        }
      ],
      "stateMutability": "view",
      "type": "function"
    },
    {
      "inputs": [
        {
          "internalType": "address[]",
          "name": "targets",
          "type": "address[]"
        },
        {
          "internalType": "uint256[]",
          "name": "values",
          "type": "uint256[]"
        },
        {
          "internalType": "bytes[]",
          "name": "calldatas",
          "type": "bytes[]"
        },
        {
          "internalType": "bytes32",
          "name": "descriptionHash",
          "type": "bytes32"
        }
      ],
      "name": "hashProposal",
      "outputs": [
        {
          "internalType": "uint256",
          "name": "",
          "type": "uint256"
        }
      ],
      "stateMutability": "pure",
      "type": "function"
    },
    {
      "inputs": [],
      "name": "name",
      "outputs": [
        {
          "internalType": "string",
          "name": "",
          "type": "string"
        }
      ],
      "stateMutability": "view",
      "type": "function"
    },
    {
      "inputs": [
        {
          "internalType": "uint256",
          "name": "proposalId",
          "type": "uint256"
        }
      ],
      "name": "proposalDeadline",
      "outputs": [
        {
          "internalType": "uint256",
          "name": "",
          "type": "uint256"
        }
      ],
      "stateMutability": "view",
      "type": "function"
    },
    {
      "inputs": [
        {
          "internalType": "uint256",
          "name": "proposalId",
          "type": "uint256"
        }
      ],
      "name": "proposalRank",
      "outputs": [
        {
          "internalType": "uint8",
          "name": "",
          "type": "uint8"
        }
      ],
      "stateMutability": "view",
      "type": "function"
    },
    {
      "inputs": [
        {
          "internalType": "uint256",
          "name": "proposalId",
          "type": "uint256"
        }
      ],
      "name": "proposalSnapshot",
      "outputs": [
        {
          "internalType": "uint256",
          "name": "",
          "type": "uint256"
        }
      ],
      "stateMutability": "view",
      "type": "function"
    },
    {
      "inputs": [],
      "name": "proposalThreshold",
      "outputs": [
        {
          "internalType": "uint256",
          "name": "",
          "type": "uint256"
        }
      ],
      "stateMutability": "view",
      "type": "function"
    },
    {
      "inputs": [
        {
          "internalType": "uint256",
          "name": "proposalId",
          "type": "uint256"
        }
      ],
      "name": "proposalVotes",
      "outputs": [
        {
          "internalType": "uint256",
          "name": "againstVotes",
          "type": "uint256"
        },
        {
          "internalType": "uint256",
          "name": "forVotes",
          "type": "uint256"
        },
        {
          "internalType": "uint256",
          "name": "abstainVotes",
          "type": "uint256"
        }
      ],
      "stateMutability": "view",
      "type": "function"
    },
    {
      "inputs": [
        {
          "internalType": "address[]",
          "name": "targets",
          "type": "address[]"
        },
        {
          "internalType": "uint256[]",
          "name": "values",
          "type": "uint256[]"
        },
        {
          "internalType": "bytes[]",
          "name": "calldatas",
          "type": "bytes[]"
        },
        {
          "internalType": "string",
          "name": "description",
          "type": "string"
        }
      ],
      "name": "propose",
      "outputs": [
        {
          "internalType": "uint256",
          "name": "",
          "type": "uint256"
        }
      ],
      "stateMutability": "nonpayable",
      "type": "function"
    },
    {
      "inputs": [
        {
          "internalType": "uint256",
          "name": "blockNumber",
          "type": "uint256"
        }
      ],
      "name": "quorum",
      "outputs": [
        {
          "internalType": "uint256[]",
          "name": "",
          "type": "uint256[]"
        }
      ],
      "stateMutability": "view",
      "type": "function"
    },
    {
      "inputs": [],
      "name": "quorumDenominator",
      "outputs": [
        {
          "internalType": "uint256",
          "name": "",
          "type": "uint256"
        }
      ],
      "stateMutability": "view",
      "type": "function"
    },
    {
      "inputs": [],
      "name": "quorumNumerator",
      "outputs": [
        {
          "internalType": "uint256[]",
          "name": "",
          "type": "uint256[]"
        }
      ],
      "stateMutability": "view",
      "type": "function"
    },
    {
      "inputs": [
        {
          "internalType": "address",
          "name": "target",
          "type": "address"
        },
        {
          "internalType": "uint256",
          "name": "value",
          "type": "uint256"
        },
        {
          "internalType": "bytes",
          "name": "data",
          "type": "bytes"
        }
      ],
      "name": "relay",
      "outputs": [],
      "stateMutability": "nonpayable",
      "type": "function"
    },
    {
      "inputs": [
        {
          "internalType": "uint256",
          "name": "newProposalThreshold",
          "type": "uint256"
        }
      ],
      "name": "setProposalThreshold",
      "outputs": [],
      "stateMutability": "nonpayable",
      "type": "function"
    },
    {
      "inputs": [
        {
          "internalType": "uint256",
          "name": "newVotingDelay",
          "type": "uint256"
        }
      ],
      "name": "setVotingDelay",
      "outputs": [],
      "stateMutability": "nonpayable",
      "type": "function"
    },
    {
      "inputs": [
        {
          "internalType": "uint256",
          "name": "newVotingPeriod",
          "type": "uint256"
        }
      ],
      "name": "setVotingPeriod",
      "outputs": [],
      "stateMutability": "nonpayable",
      "type": "function"
    },
    {
      "inputs": [
        {
          "internalType": "uint256",
          "name": "proposalId",
          "type": "uint256"
        }
      ],
      "name": "state",
      "outputs": [
        {
          "internalType": "enum IGovernor.ProposalState",
          "name": "",
          "type": "uint8"
        }
      ],
      "stateMutability": "view",
      "type": "function"
    },
    {
      "inputs": [
        {
          "internalType": "bytes4",
          "name": "interfaceId",
          "type": "bytes4"
        }
      ],
      "name": "supportsInterface",
      "outputs": [
        {
          "internalType": "bool",
          "name": "",
          "type": "bool"
        }
      ],
      "stateMutability": "view",
      "type": "function"
    },
    {
      "inputs": [],
      "name": "token",
      "outputs": [
        {
          "internalType": "contract IVotes",
          "name": "",
          "type": "address"
        }
      ],
      "stateMutability": "view",
      "type": "function"
    },
    {
      "inputs": [
        {
          "internalType": "uint256[]",
          "name": "newQuorumNumerator",
          "type": "uint256[]"
        }
      ],
      "name": "updateQuorumNumerator",
      "outputs": [],
      "stateMutability": "nonpayable",
      "type": "function"
    },
    {
      "inputs": [],
      "name": "version",
      "outputs": [
        {
          "internalType": "string",
          "name": "",
          "type": "string"
        }
      ],
      "stateMutability": "view",
      "type": "function"
    },
    {
      "inputs": [],
      "name": "votingDelay",
      "outputs": [
        {
          "internalType": "uint256",
          "name": "",
          "type": "uint256"
        }
      ],
      "stateMutability": "view",
      "type": "function"
    },
    {
      "inputs": [],
      "name": "votingPeriod",
      "outputs": [
        {
          "internalType": "uint256",
          "name": "",
          "type": "uint256"
        }
      ],
      "stateMutability": "view",
      "type": "function"
    },
    {
      "stateMutability": "payable",
      "type": "receive"
    }
  ],
  "bytecode": "0x6101606040523480156200001257600080fd5b506040516200375338038062003753833981016040819052620000359162000695565b80858585856040518060400160405280600d81526020016c2cb0b73230a3b7bb32b93737b960991b81525080620000716200023960201b60201c565b815160208084019190912082518383012060e08290526101008190524660a0818152604080517f8b73c3c69bb8fe3d512ecc4cf759cc79239f7b179b0ffacaa9a75d522b39400f81880181905281830187905260608201869052608082019490945230818401528151808203909301835260c00190528051940193909320919290916080523060601b60c05261012052505082516200011a9250600091506020840190620005b2565b506200012890508362000254565b620001338262000295565b6200013e816200033c565b50505060601b6001600160601b031916610140526200015d816200037d565b5062000192604051806040016040528060048152602001632f2ff15d60e01b81525060026200057860201b6200111b1760201c565b620001c660405180604001604052806004815260200163d547741f60e01b81525060026200057860201b6200111b1760201c565b620001fa604051806040016040528060048152602001631d6451ab60e11b81525060026200057860201b6200111b1760201c565b6200022e60405180604001604052806004815260200163c0f99d6760e01b81525060016200057860201b6200111b1760201c565b5050505050620008c6565b6040805180820190915260018152603160f81b602082015290565b60035460408051918252602082018390527fc565b045403dc03c2eea82b81a0465edad9e2e7fc4d97e11421c209da93d7a93910160405180910390a1600355565b60008111620002fb5760405162461bcd60e51b815260206004820152602760248201527f476f7665726e6f7253657474696e67733a20766f74696e6720706572696f6420604482015266746f6f206c6f7760c81b60648201526084015b60405180910390fd5b60045460408051918252602082018390527f7e3f7f0708a84de9203036abaa450dccc85ad5ff52f78c170f3edb55cf5e8828910160405180910390a1600455565b60055460408051918252602082018390527fccb45da8d5717e6c4544694297c4ba5cf151d455c9bb0ed4fc7a38411bc05461910160405180910390a1600555565b60005b81518110156200044c576064828281518110620003ad57634e487b7160e01b600052603260045260246000fd5b60200260200101511115620004375760405162461bcd60e51b815260206004820152604360248201527f476f7665726e6f72566f74657351756f72756d4672616374696f6e3a2071756f60448201527f72756d4e756d657261746f72206f7665722071756f72756d44656e6f6d696e616064820152623a37b960e91b608482015260a401620002f2565b80620004438162000888565b91505062000380565b506007546000906001600160401b038111156200047957634e487b7160e01b600052604160045260246000fd5b604051908082528060200260200182016040528015620004a3578160200160208202803683370190505b50905060005b600754811015620005225760078181548110620004d657634e487b7160e01b600052603260045260246000fd5b90600052602060002001548282815181106200050257634e487b7160e01b600052603260045260246000fd5b602090810291909101015280620005198162000888565b915050620004a9565b5081516200053890600790602085019062000641565b507fde8ec7bbb610f8609daae64d14c8c4f5a587732b0c01ec8578b8011cc404d3e981836040516200056c92919062000819565b60405180910390a15050565b806002836040516200058b9190620007dd565b908152604051908190036020019020805460ff9290921660ff199092169190911790555050565b828054620005c0906200084b565b90600052602060002090601f016020900481019282620005e457600085556200062f565b82601f10620005ff57805160ff19168380011785556200062f565b828001600101855582156200062f579182015b828111156200062f57825182559160200191906001019062000612565b506200063d9291506200067e565b5090565b8280548282559060005260206000209081019282156200062f57916020028201828111156200062f57825182559160200191906001019062000612565b5b808211156200063d57600081556001016200067f565b600080600080600060a08688031215620006ad578081fd5b85516001600160a01b0381168114620006c4578182fd5b602087810151604089015160608a015160808b015194995091975095509350906001600160401b0380821115620006f9578384fd5b818901915089601f8301126200070d578384fd5b815181811115620007225762000722620008b0565b8060051b604051601f19603f830116810181811085821117156200074a576200074a620008b0565b604052828152858101935084860182860187018e101562000769578788fd5b8795505b838610156200078d5780518552600195909501949386019386016200076d565b508096505050505050509295509295909350565b6000815180845260208085019450808401835b83811015620007d257815187529582019590820190600101620007b4565b509495945050505050565b60008251815b81811015620007ff5760208186018101518583015201620007e3565b818111156200080e5782828501525b509190910192915050565b6000604082526200082e6040830185620007a1565b8281036020840152620008428185620007a1565b95945050505050565b600181811c908216806200086057607f821691505b602082108114156200088257634e487b7160e01b600052602260045260246000fd5b50919050565b6000600019821415620008a957634e487b7160e01b81526011600452602481fd5b5060010190565b634e487b7160e01b600052604160045260246000fd5b60805160a05160c05160601c60e05161010051610120516101405160601c612e1e620009356000396000818161069e0152818161187d01526119b601526000611b8f01526000611bde01526000611bb901526000611b1001526000611b3a01526000611b640152612e1e6000f3fe6080604052600436106101dc5760003560e01c806370b0f66011610102578063c59057e411610095578063eb9019d411610064578063eb9019d41461062c578063ece40cc11461064c578063f8ce560a1461066c578063fc0c546a1461068c576101ff565b8063c59057e414610572578063dd4e2ba514610592578063deaaa7cc146105d8578063ea0217cf1461060c576101ff565b8063a7713a70116100d1578063a7713a70146104fb578063b58131b01461051d578063c01f9e3714610532578063c28bc2fa14610552576101ff565b806370b0f660146104875780637b3c71d3146104a75780637d5e81e2146104c757806397c3d334146104e7576101ff565b80633ac8a3561161017a5780634385963211610149578063438596321461039e578063544ffc9c146103e857806354fd4d501461043d5780635678138814610467576101ff565b80633ac8a356146102f85780633b8124f8146103185780633bccf4fd146103515780633e4f49e614610371576101ff565b80631658a02c116101b65780631658a02c1461027e5780632656227d146102b05780632d63f693146102c35780633932abb1146102e3576101ff565b806301ffc9a71461020457806302a251a31461023957806306fdde031461025c576101ff565b366101ff57306101ea6106d8565b6001600160a01b0316146101fd57600080fd5b005b600080fd5b34801561021057600080fd5b5061022461021f366004612717565b6106dd565b60405190151581526020015b60405180910390f35b34801561024557600080fd5b5061024e610716565b604051908152602001610230565b34801561026857600080fd5b50610271610726565b6040516102309190612a59565b34801561028a57600080fd5b5061029e61029936600461273f565b6107b8565b60405160ff9091168152602001610230565b61024e6102be3660046125a0565b6107e7565b3480156102cf57600080fd5b5061024e6102de36600461277e565b610915565b3480156102ef57600080fd5b5061024e61094c565b34801561030457600080fd5b506101fd6103133660046126e5565b610957565b34801561032457600080fd5b5061029e61033336600461277e565b60009081526001602052604090206002015462010000900460ff1690565b34801561035d57600080fd5b5061024e61036c36600461283a565b61099b565b34801561037d57600080fd5b5061039161038c36600461277e565b610a2f565b6040516102309190612a31565b3480156103aa57600080fd5b506102246103b93660046127ae565b60008281526006602090815260408083206001600160a01b038516845260030190915290205460ff1692915050565b3480156103f457600080fd5b5061042261040336600461277e565b6000908152600660205260409020805460018201546002909201549092565b60408051938452602084019290925290820152606001610230565b34801561044957600080fd5b506040805180820190915260018152603160f81b6020820152610271565b34801561047357600080fd5b5061024e6104823660046127d9565b610b5e565b34801561049357600080fd5b506101fd6104a236600461277e565b610b87565b3480156104b357600080fd5b5061024e6104c23660046127fb565b610bc8565b3480156104d357600080fd5b5061024e6104e236600461262b565b610c1a565b3480156104f357600080fd5b50606461024e565b34801561050757600080fd5b50610510610f2f565b60405161023091906129f0565b34801561052957600080fd5b5061024e610f86565b34801561053e57600080fd5b5061024e61054d36600461277e565b610f91565b34801561055e57600080fd5b506101fd61056d366004612549565b610fc0565b34801561057e57600080fd5b5061024e61058d3660046125a0565b611041565b34801561059e57600080fd5b506040805180820190915260208082527f737570706f72743d627261766f2671756f72756d3d666f722c6162737461696e90820152610271565b3480156105e457600080fd5b5061024e7f150214d74d59b7d1e90c73fc22ef3d991dd0a76b046543d4d80ab92d2a50328f81565b34801561061857600080fd5b506101fd61062736600461277e565b61107b565b34801561063857600080fd5b5061024e610647366004612520565b6110bc565b34801561065857600080fd5b506101fd61066736600461277e565b6110cf565b34801561067857600080fd5b5061051061068736600461277e565b611110565b34801561069857600080fd5b506106c07f000000000000000000000000000000000000000000000000000000000000000081565b6040516001600160a01b039091168152602001610230565b305b90565b60006001600160e01b0319821663bf26d89760e01b148061070e57506301ffc9a760e01b6001600160e01b03198316145b90505b919050565b600061072160045490565b905090565b60606000805461073590612d16565b80601f016020809104026020016040519081016040528092919081815260200182805461076190612d16565b80156107ae5780601f10610783576101008083540402835291602001916107ae565b820191906000526020600020905b81548152906001019060200180831161079157829003601f168201915b5050505050905090565b6000600283836040516107cc929190612979565b9081526040519081900360200190205460ff16905092915050565b6000806107f686868686611041565b9050600061080382610a2f565b9050600481600781111561082757634e487b7160e01b600052602160045260246000fd5b14806108525750600581600781111561085057634e487b7160e01b600052602160045260246000fd5b145b6108ad5760405162461bcd60e51b815260206004820152602160248201527f476f7665726e6f723a2070726f706f73616c206e6f74207375636365737366756044820152601b60fa1b60648201526084015b60405180910390fd5b600082815260016020818152604092839020600201805460ff191690921790915590518381527f712ae1383f79ac853f8d882153778e0260ef8f03b504e2866e0593e04d2b291f910160405180910390a161090b8288888888611153565b5095945050505050565b60008181526001602090815260408083208151928301909152546001600160401b0316908190525b6001600160401b031692915050565b600061072160035490565b61095f6106d8565b6001600160a01b0316336001600160a01b03161461098f5760405162461bcd60e51b81526004016108a490612a6c565b6109988161127c565b50565b604080517f150214d74d59b7d1e90c73fc22ef3d991dd0a76b046543d4d80ab92d2a50328f602082015290810186905260ff851660608201526000908190610a07906109ff9060800160405160208183030381529060405280519060200120611464565b8686866114b2565b9050610a24878288604051806020016040528060008152506114d0565b979650505050505050565b6000818152600160205260408120600281015460ff1615610a54576007915050610711565b6002810154610100900460ff1615610a70576002915050610711565b6000610a7b84610915565b905080610aca5760405162461bcd60e51b815260206004820152601d60248201527f476f7665726e6f723a20756e6b6e6f776e2070726f706f73616c20696400000060448201526064016108a4565b438110610adc57600092505050610711565b6000610ae785610f91565b9050438110610afc5760019350505050610711565b600085815260016020526040902060020154610b2290869062010000900460ff166115e9565b8015610b41575060008581526006602052604090208054600190910154115b15610b525760049350505050610711565b60039350505050610711565b600080339050610b7f848285604051806020016040528060008152506114d0565b949350505050565b610b8f6106d8565b6001600160a01b0316336001600160a01b031614610bbf5760405162461bcd60e51b81526004016108a490612a6c565b61099881611651565b600080339050610c1086828787878080601f0160208091040260200160405190810160405280939291908181526020018383808284376000920191909152506114d092505050565b9695505050505050565b6000610c24610f86565b610c3333610647600143612ccf565b1015610cb35760405162461bcd60e51b815260206004820152604360248201527f476f7665726e6f72436f6d7061746962696c697479427261766f3a2070726f7060448201527f6f73657220766f7465732062656c6f772070726f706f73616c207468726573686064820152621bdb1960ea1b608482015260a4016108a4565b6000610cc88686868680519060200120611041565b90508451865114610ceb5760405162461bcd60e51b81526004016108a490612aa3565b8351865114610d0c5760405162461bcd60e51b81526004016108a490612aa3565b6000865111610d5d5760405162461bcd60e51b815260206004820152601860248201527f476f7665726e6f723a20656d7074792070726f706f73616c000000000000000060448201526064016108a4565b600081815260016020908152604091829020825191820190925281546001600160401b03169081905215610ddd5760405162461bcd60e51b815260206004820152602160248201527f476f7665726e6f723a2070726f706f73616c20616c72656164792065786973746044820152607360f81b60648201526084016108a4565b6000610def610dea61094c565b611692565b610df843611692565b610e029190612c65565b90506000610e11610dea610716565b610e1b9083612c65565b90506000610e28886116fe565b845467ffffffffffffffff19166001600160401b038516178555905060018401805467ffffffffffffffff19166001600160401b03841617905560028401805462ff000019166201000060ff8416021790557f7d84a6263ae0d98d3329bd7b46bb4e8d6f98cd35a7adb45c274c8b7fd5ebd5e085610ea33390565b8c8c8e516001600160401b03811115610ecc57634e487b7160e01b600052604160045260246000fd5b604051908082528060200260200182016040528015610eff57816020015b6060815260200190600190039081610eea5790505b508d89898f604051610f1999989796959493929190612ae4565b60405180910390a1509298975050505050505050565b606060078054806020026020016040519081016040528092919081815260200182805480156107ae57602002820191906000526020600020905b815481526020019060010190808311610f69575050505050905090565b600061072160055490565b60008181526001602081815260408084208151928301909152909101546001600160401b03169081905261093d565b610fc86106d8565b6001600160a01b0316336001600160a01b031614610ff85760405162461bcd60e51b81526004016108a490612a6c565b61103a8483838080601f01602080910402602001604051908101604052809392919081815260200183838082843760009201919091525088925061178d915050565b5050505050565b60008484848460405160200161105a94939291906129a5565b60408051601f19818403018152919052805160209091012095945050505050565b6110836106d8565b6001600160a01b0316336001600160a01b0316146110b35760405162461bcd60e51b81526004016108a490612a6c565b610998816117b3565b60006110c88383611854565b9392505050565b6110d76106d8565b6001600160a01b0316336001600160a01b0316146111075760405162461bcd60e51b81526004016108a490612a6c565b610998816118f9565b606061070e8261193a565b8060028360405161112c9190612989565b908152604051908190036020019020805460ff9290921660ff199092169190911790555050565b6000604051806060016040528060278152602001612d9960279139905060005b85518110156112735760008087838151811061119f57634e487b7160e01b600052603260045260246000fd5b60200260200101516001600160a01b03168784815181106111d057634e487b7160e01b600052603260045260246000fd5b60200260200101518785815181106111f857634e487b7160e01b600052603260045260246000fd5b602002602001015160405161120d9190612989565b60006040518083038185875af1925050503d806000811461124a576040519150601f19603f3d011682016040523d82523d6000602084013e61124f565b606091505b509150915061125f828286611aca565b5050508061126c90612d51565b9050611173565b50505050505050565b60005b81518110156113445760648282815181106112aa57634e487b7160e01b600052603260045260246000fd5b602002602001015111156113325760405162461bcd60e51b815260206004820152604360248201527f476f7665726e6f72566f74657351756f72756d4672616374696f6e3a2071756f60448201527f72756d4e756d657261746f72206f7665722071756f72756d44656e6f6d696e616064820152623a37b960e91b608482015260a4016108a4565b8061133c81612d51565b91505061127f565b506007546000906001600160401b0381111561137057634e487b7160e01b600052604160045260246000fd5b604051908082528060200260200182016040528015611399578160200160208202803683370190505b50905060005b60075481101561141257600781815481106113ca57634e487b7160e01b600052603260045260246000fd5b90600052602060002001548282815181106113f557634e487b7160e01b600052603260045260246000fd5b60209081029190910101528061140a81612d51565b91505061139f565b5081516114269060079060208501906122c7565b507fde8ec7bbb610f8609daae64d14c8c4f5a587732b0c01ec8578b8011cc404d3e98183604051611458929190612a03565b60405180910390a15050565b600061070e611471611b03565b8360405161190160f01b6020820152602281018390526042810182905260009060620160405160208183030381529060405280519060200120905092915050565b60008060006114c387878787611c2e565b9150915061090b81611d1b565b60008481526001602081905260408220906114ea87610a2f565b600781111561150957634e487b7160e01b600052602160045260246000fd5b146115625760405162461bcd60e51b815260206004820152602360248201527f476f7665726e6f723a20766f7465206e6f742063757272656e746c792061637460448201526269766560e81b60648201526084016108a4565b604080516020810190915281546001600160401b03169081905260009061158a9087906110bc565b905061159887878784611f1e565b856001600160a01b03167fb8e138887d0aa13bab447e82de9d5c1777041ecd21ca36ba824ff1e6c07ddda4888784886040516115d79493929190612bd2565b60405180910390a29695505050505050565b60008281526006602052604081208161160461068786610915565b90508160020154826001015461161a9190612c4d565b818560ff168151811061163d57634e487b7160e01b600052603260045260246000fd5b602002602001015111159250505092915050565b60035460408051918252602082018390527fc565b045403dc03c2eea82b81a0465edad9e2e7fc4d97e11421c209da93d7a93910160405180910390a1600355565b60006001600160401b038211156116fa5760405162461bcd60e51b815260206004820152602660248201527f53616665436173743a2076616c756520646f65736e27742066697420696e203660448201526534206269747360d01b60648201526084016108a4565b5090565b600080805b8351811015611786576000600261174486848151811061173357634e487b7160e01b600052603260045260246000fd5b60200260200101516000600461209d565b6040516117519190612989565b9081526040519081900360200190205460ff90811691508316811115611775578092505b5061177f81612d51565b9050611703565b5092915050565b6060610b7f848484604051806060016040528060298152602001612dc0602991396121aa565b600081116118135760405162461bcd60e51b815260206004820152602760248201527f476f7665726e6f7253657474696e67733a20766f74696e6720706572696f6420604482015266746f6f206c6f7760c81b60648201526084016108a4565b60045460408051918252602082018390527f7e3f7f0708a84de9203036abaa450dccc85ad5ff52f78c170f3edb55cf5e8828910160405180910390a1600455565b604051630748d63560e31b81526001600160a01b038381166004830152602482018390526000917f000000000000000000000000000000000000000000000000000000000000000090911690633a46b1a89060440160206040518083038186803b1580156118c157600080fd5b505afa1580156118d5573d6000803e3d6000fd5b505050506040513d601f19601f820116820180604052508101906110c89190612796565b60055460408051918252602082018390527fccb45da8d5717e6c4544694297c4ba5cf151d455c9bb0ed4fc7a38411bc05461910160405180910390a1600555565b6007546060906000906001600160401b0381111561196857634e487b7160e01b600052604160045260246000fd5b604051908082528060200260200182016040528015611991578160200160208202803683370190505b50604051632394e7a360e21b8152600481018590529091506000906001600160a01b037f00000000000000000000000000000000000000000000000000000000000000001690638e539e8c9060240160206040518083038186803b1580156119f857600080fd5b505afa158015611a0c573d6000803e3d6000fd5b505050506040513d601f19601f82011682018060405250810190611a309190612796565b9050606460005b600754811015611ac0578160078281548110611a6357634e487b7160e01b600052603260045260246000fd5b906000526020600020015484611a799190612cb0565b611a839190612c90565b848281518110611aa357634e487b7160e01b600052603260045260246000fd5b602090810291909101015280611ab881612d51565b915050611a37565b5091949350505050565b60608315611ad95750816110c8565b825115611ae95782518084602001fd5b8160405162461bcd60e51b81526004016108a49190612a59565b6000306001600160a01b037f000000000000000000000000000000000000000000000000000000000000000016148015611b5c57507f000000000000000000000000000000000000000000000000000000000000000046145b15611b8857507f00000000000000000000000000000000000000000000000000000000000000006106da565b50604080517f00000000000000000000000000000000000000000000000000000000000000006020808301919091527f0000000000000000000000000000000000000000000000000000000000000000828401527f000000000000000000000000000000000000000000000000000000000000000060608301524660808301523060a0808401919091528351808403909101815260c090920190925280519101206106da565b6000807f7fffffffffffffffffffffffffffffff5d576e7357a4501ddfe92f46681b20a0831115611c655750600090506003611d12565b8460ff16601b14158015611c7d57508460ff16601c14155b15611c8e5750600090506004611d12565b6040805160008082526020820180845289905260ff881692820192909252606081018690526080810185905260019060a0016020604051602081039080840390855afa158015611ce2573d6000803e3d6000fd5b5050604051601f1901519150506001600160a01b038116611d0b57600060019250925050611d12565b9150600090505b94509492505050565b6000816004811115611d3d57634e487b7160e01b600052602160045260246000fd5b1415611d4857610998565b6001816004811115611d6a57634e487b7160e01b600052602160045260246000fd5b1415611db85760405162461bcd60e51b815260206004820152601860248201527f45434453413a20696e76616c6964207369676e6174757265000000000000000060448201526064016108a4565b6002816004811115611dda57634e487b7160e01b600052602160045260246000fd5b1415611e285760405162461bcd60e51b815260206004820152601f60248201527f45434453413a20696e76616c6964207369676e6174757265206c656e6774680060448201526064016108a4565b6003816004811115611e4a57634e487b7160e01b600052602160045260246000fd5b1415611ea35760405162461bcd60e51b815260206004820152602260248201527f45434453413a20696e76616c6964207369676e6174757265202773272076616c604482015261756560f01b60648201526084016108a4565b6004816004811115611ec557634e487b7160e01b600052602160045260246000fd5b14156109985760405162461bcd60e51b815260206004820152602260248201527f45434453413a20696e76616c6964207369676e6174757265202776272076616c604482015261756560f01b60648201526084016108a4565b60008481526006602090815260408083206001600160a01b0387168452600381019092529091205460ff1615611fa65760405162461bcd60e51b815260206004820152602760248201527f476f7665726e6f72566f74696e6753696d706c653a20766f746520616c726561604482015266191e4818d85cdd60ca1b60648201526084016108a4565b6001600160a01b03841660009081526003820160205260408120805460ff1916600117905560ff168360ff161415611ff75781816000016000828254611fec9190612c4d565b9091555061103a9050565b60ff8316600114156120175781816001016000828254611fec9190612c4d565b60ff8316600214156120375781816002016000828254611fec9190612c4d565b60405162461bcd60e51b815260206004820152603560248201527f476f7665726e6f72566f74696e6753696d706c653a20696e76616c69642076616044820152746c756520666f7220656e756d20566f74655479706560581b60648201526084016108a4565b6060816120ab81601f612c4d565b10156120ea5760405162461bcd60e51b815260206004820152600e60248201526d736c6963655f6f766572666c6f7760901b60448201526064016108a4565b6120f48284612c4d565b845110156121385760405162461bcd60e51b8152602060048201526011602482015270736c6963655f6f75744f66426f756e647360781b60448201526064016108a4565b60608215801561215757604051915060008252602082016040526121a1565b6040519150601f8416801560200281840101858101878315602002848b0101015b81831015612190578051835260209283019201612178565b5050858452601f01601f1916604052505b50949350505050565b60608247101561220b5760405162461bcd60e51b815260206004820152602660248201527f416464726573733a20696e73756666696369656e742062616c616e636520666f6044820152651c8818d85b1b60d21b60648201526084016108a4565b843b6122595760405162461bcd60e51b815260206004820152601d60248201527f416464726573733a2063616c6c20746f206e6f6e2d636f6e747261637400000060448201526064016108a4565b600080866001600160a01b031685876040516122759190612989565b60006040518083038185875af1925050503d80600081146122b2576040519150601f19603f3d011682016040523d82523d6000602084013e6122b7565b606091505b5091509150610a24828286611aca565b828054828255906000526020600020908101928215612302579160200282015b828111156123025782518255916020019190600101906122e7565b506116fa9291505b808211156116fa576000815560010161230a565b60006001600160401b0383111561233757612337612d82565b61234a601f8401601f1916602001612bfa565b905082815283838301111561235e57600080fd5b828260208301376000602084830101529392505050565b80356001600160a01b038116811461071157600080fd5b600082601f83011261239c578081fd5b813560206123b16123ac83612c2a565b612bfa565b80838252828201915082860187848660051b89010111156123d0578586fd5b855b858110156123f5576123e382612375565b845292840192908401906001016123d2565b5090979650505050505050565b600082601f830112612412578081fd5b813560206124226123ac83612c2a565b82815281810190858301855b858110156123f5578135880189603f820112612448578788fd5b6124598a878301356040840161231e565b855250928401929084019060010161242e565b600082601f83011261247c578081fd5b8135602061248c6123ac83612c2a565b80838252828201915082860187848660051b89010111156124ab578586fd5b855b858110156123f5578135845292840192908401906001016124ad565b60008083601f8401126124da578182fd5b5081356001600160401b038111156124f0578182fd5b60208301915083602082850101111561250857600080fd5b9250929050565b803560ff8116811461071157600080fd5b60008060408385031215612532578182fd5b61253b83612375565b946020939093013593505050565b6000806000806060858703121561255e578182fd5b61256785612375565b93506020850135925060408501356001600160401b03811115612588578283fd5b612594878288016124c9565b95989497509550505050565b600080600080608085870312156125b5578384fd5b84356001600160401b03808211156125cb578586fd5b6125d78883890161238c565b955060208701359150808211156125ec578485fd5b6125f88883890161246c565b9450604087013591508082111561260d578384fd5b5061261a87828801612402565b949793965093946060013593505050565b60008060008060808587031215612640578384fd5b84356001600160401b0380821115612656578586fd5b6126628883890161238c565b95506020870135915080821115612677578485fd5b6126838883890161246c565b94506040870135915080821115612698578384fd5b6126a488838901612402565b935060608701359150808211156126b9578283fd5b508501601f810187136126ca578182fd5b6126d98782356020840161231e565b91505092959194509250565b6000602082840312156126f6578081fd5b81356001600160401b0381111561270b578182fd5b610b7f8482850161246c565b600060208284031215612728578081fd5b81356001600160e01b0319811681146110c8578182fd5b60008060208385031215612751578182fd5b82356001600160401b03811115612766578283fd5b612772858286016124c9565b90969095509350505050565b60006020828403121561278f578081fd5b5035919050565b6000602082840312156127a7578081fd5b5051919050565b600080604083850312156127c0578182fd5b823591506127d060208401612375565b90509250929050565b600080604083850312156127eb578182fd5b823591506127d06020840161250f565b60008060008060608587031215612810578182fd5b843593506128206020860161250f565b925060408501356001600160401b03811115612588578283fd5b600080600080600060a08688031215612851578283fd5b853594506128616020870161250f565b935061286f6040870161250f565b94979396509394606081013594506080013592915050565b6000815180845260208085019450808401835b838110156128bf5781516001600160a01b03168752958201959082019060010161289a565b509495945050505050565b600081518084526020808501808196508360051b81019150828601855b858110156129115782840389526128ff84835161294d565b988501989350908401906001016128e7565b5091979650505050505050565b6000815180845260208085019450808401835b838110156128bf57815187529582019590820190600101612931565b60008151808452612965816020860160208601612ce6565b601f01601f19169290920160200192915050565b6000828483379101908152919050565b6000825161299b818460208701612ce6565b9190910192915050565b6000608082526129b86080830187612887565b82810360208401526129ca818761291e565b905082810360408401526129de81866128ca565b91505082606083015295945050505050565b6000602082526110c8602083018461291e565b600060408252612a16604083018561291e565b8281036020840152612a28818561291e565b95945050505050565b6020810160088310612a5357634e487b7160e01b600052602160045260246000fd5b91905290565b6000602082526110c8602083018461294d565b60208082526018908201527f476f7665726e6f723a206f6e6c79476f7665726e616e63650000000000000000604082015260600190565b60208082526021908201527f476f7665726e6f723a20696e76616c69642070726f706f73616c206c656e67746040820152600d60fb1b606082015260800190565b60006101208b8352602060018060a01b038c1681850152816040850152612b0d8285018c612887565b91508382036060850152612b21828b61291e565b915083820360808501528189518084528284019150828160051b850101838c01865b83811015612b7157601f19878403018552612b5f83835161294d565b94860194925090850190600101612b43565b505086810360a0880152612b85818c6128ca565b945050505050612ba060c08401876001600160401b03169052565b6001600160401b03851660e0840152828103610100840152612bc2818561294d565b9c9b505050505050505050505050565b600085825260ff8516602083015283604083015260806060830152610c10608083018461294d565b604051601f8201601f191681016001600160401b0381118282101715612c2257612c22612d82565b604052919050565b60006001600160401b03821115612c4357612c43612d82565b5060051b60200190565b60008219821115612c6057612c60612d6c565b500190565b60006001600160401b03808316818516808303821115612c8757612c87612d6c565b01949350505050565b600082612cab57634e487b7160e01b81526012600452602481fd5b500490565b6000816000190483118215151615612cca57612cca612d6c565b500290565b600082821015612ce157612ce1612d6c565b500390565b60005b83811015612d01578181015183820152602001612ce9565b83811115612d10576000848401525b50505050565b600181811c90821680612d2a57607f821691505b60208210811415612d4b57634e487b7160e01b600052602260045260246000fd5b50919050565b6000600019821415612d6557612d65612d6c565b5060010190565b634e487b7160e01b600052601160045260246000fd5b634e487b7160e01b600052604160045260246000fdfe476f7665726e6f723a2063616c6c20726576657274656420776974686f7574206d657373616765416464726573733a206c6f772d6c6576656c2063616c6c20776974682076616c7565206661696c6564a2646970667358221220fa62ca53c0153298cdfbb628bf6f6bfd4ee658f320976805104dd83120dc88f564736f6c63430008030033",
  "linkReferences": {},
  "deployedLinkReferences": {}
}